{
  "contractName": "HospitalRecords",
  "abi": [
    {
      "inputs": [],
      "stateMutability": "nonpayable",
      "type": "constructor"
    },
    {
      "inputs": [],
      "name": "owner",
      "outputs": [
        {
          "internalType": "address",
          "name": "",
          "type": "address"
        }
      ],
      "stateMutability": "view",
      "type": "function",
      "constant": true
    },
    {
      "inputs": [
        {
          "internalType": "uint256",
          "name": "",
          "type": "uint256"
        }
      ],
      "name": "patients",
      "outputs": [
        {
          "internalType": "string",
          "name": "name",
          "type": "string"
        },
        {
          "internalType": "string",
          "name": "height",
          "type": "string"
        },
        {
          "internalType": "string",
          "name": "weight",
          "type": "string"
        },
        {
          "internalType": "string",
          "name": "age",
          "type": "string"
        },
        {
          "internalType": "string",
          "name": "bloodGroup",
          "type": "string"
        }
      ],
      "stateMutability": "view",
      "type": "function",
      "constant": true
    },
    {
      "inputs": [
        {
          "internalType": "string",
          "name": "_name",
          "type": "string"
        },
        {
          "internalType": "string",
          "name": "_height",
          "type": "string"
        },
        {
          "internalType": "string",
          "name": "_weight",
          "type": "string"
        },
        {
          "internalType": "string",
          "name": "_age",
          "type": "string"
        },
        {
          "internalType": "string",
          "name": "_bloodGroup",
          "type": "string"
        }
      ],
      "name": "addPatient",
      "outputs": [],
      "stateMutability": "payable",
      "type": "function",
      "payable": true
    },
    {
      "inputs": [],
      "name": "getPatientsCount",
      "outputs": [
        {
          "internalType": "uint256",
          "name": "",
          "type": "uint256"
        }
      ],
      "stateMutability": "view",
      "type": "function",
      "constant": true
    },
    {
      "inputs": [
        {
          "internalType": "uint256",
          "name": "index",
          "type": "uint256"
        }
      ],
      "name": "getPatient",
      "outputs": [
        {
          "internalType": "string",
          "name": "",
          "type": "string"
        },
        {
          "internalType": "string",
          "name": "",
          "type": "string"
        },
        {
          "internalType": "string",
          "name": "",
          "type": "string"
        },
        {
          "internalType": "string",
          "name": "",
          "type": "string"
        },
        {
          "internalType": "string",
          "name": "",
          "type": "string"
        }
      ],
      "stateMutability": "view",
      "type": "function",
      "constant": true
    }
  ],
  "bytecode": "0x608060405234801561001057600080fd5b5033600160006101000a81548173ffffffffffffffffffffffffffffffffffffffff021916908373ffffffffffffffffffffffffffffffffffffffff16021790555061117b806100616000396000f3fe60806040526004361061004a5760003560e01c806356fa82171461004f5780637d3a67961461006b5780638da5cb5b146100ac57806393119a83146100d7578063ebc9b2f414610118575b600080fd5b61006960048036038101906100649190610a55565b610143565b005b34801561007757600080fd5b50610092600480360381019061008d9190610b92565b610255565b6040516100a3959493929190610c3e565b60405180910390f35b3480156100b857600080fd5b506100c16105db565b6040516100ce9190610cf5565b60405180910390f35b3480156100e357600080fd5b506100fe60048036038101906100f99190610b92565b610601565b60405161010f959493929190610c3e565b60405180910390f35b34801561012457600080fd5b5061012d6108ef565b60405161013a9190610d1f565b60405180910390f35b662386f26fc10000341461018c576040517f08c379a000000000000000000000000000000000000000000000000000000000815260040161018390610dac565b60405180910390fd5b60006040518060a0016040528087815260200186815260200185815260200184815260200183815250908060018154018082558091505060019003906000526020600020906005020160009091909190915060008201518160000190816101f39190610fd8565b5060208201518160010190816102099190610fd8565b50604082015181600201908161021f9190610fd8565b5060608201518160030190816102359190610fd8565b50608082015181600401908161024b9190610fd8565b5050505050505050565b606080606080606060008054905086106102a4576040517f08c379a000000000000000000000000000000000000000000000000000000000815260040161029b906110f6565b60405180910390fd5b60008087815481106102b9576102b8611116565b5b90600052602060002090600502016040518060a00160405290816000820180546102e290610dfb565b80601f016020809104026020016040519081016040528092919081815260200182805461030e90610dfb565b801561035b5780601f106103305761010080835404028352916020019161035b565b820191906000526020600020905b81548152906001019060200180831161033e57829003601f168201915b5050505050815260200160018201805461037490610dfb565b80601f01602080910402602001604051908101604052809291908181526020018280546103a090610dfb565b80156103ed5780601f106103c2576101008083540402835291602001916103ed565b820191906000526020600020905b8154815290600101906020018083116103d057829003601f168201915b5050505050815260200160028201805461040690610dfb565b80601f016020809104026020016040519081016040528092919081815260200182805461043290610dfb565b801561047f5780601f106104545761010080835404028352916020019161047f565b820191906000526020600020905b81548152906001019060200180831161046257829003601f168201915b5050505050815260200160038201805461049890610dfb565b80601f01602080910402602001604051908101604052809291908181526020018280546104c490610dfb565b80156105115780601f106104e657610100808354040283529160200191610511565b820191906000526020600020905b8154815290600101906020018083116104f457829003601f168201915b5050505050815260200160048201805461052a90610dfb565b80601f016020809104026020016040519081016040528092919081815260200182805461055690610dfb565b80156105a35780601f10610578576101008083540402835291602001916105a3565b820191906000526020600020905b81548152906001019060200180831161058657829003601f168201915b505050505081525050905080600001518160200151826040015183606001518460800151955095509550955095505091939590929450565b600160009054906101000a900473ffffffffffffffffffffffffffffffffffffffff1681565b6000818154811061061157600080fd5b906000526020600020906005020160009150905080600001805461063490610dfb565b80601f016020809104026020016040519081016040528092919081815260200182805461066090610dfb565b80156106ad5780601f10610682576101008083540402835291602001916106ad565b820191906000526020600020905b81548152906001019060200180831161069057829003601f168201915b5050505050908060010180546106c290610dfb565b80601f01602080910402602001604051908101604052809291908181526020018280546106ee90610dfb565b801561073b5780601f106107105761010080835404028352916020019161073b565b820191906000526020600020905b81548152906001019060200180831161071e57829003601f168201915b50505050509080600201805461075090610dfb565b80601f016020809104026020016040519081016040528092919081815260200182805461077c90610dfb565b80156107c95780601f1061079e576101008083540402835291602001916107c9565b820191906000526020600020905b8154815290600101906020018083116107ac57829003601f168201915b5050505050908060030180546107de90610dfb565b80601f016020809104026020016040519081016040528092919081815260200182805461080a90610dfb565b80156108575780601f1061082c57610100808354040283529160200191610857565b820191906000526020600020905b81548152906001019060200180831161083a57829003601f168201915b50505050509080600401805461086c90610dfb565b80601f016020809104026020016040519081016040528092919081815260200182805461089890610dfb565b80156108e55780601f106108ba576101008083540402835291602001916108e5565b820191906000526020600020905b8154815290600101906020018083116108c857829003601f168201915b5050505050905085565b60008080549050905090565b6000604051905090565b600080fd5b600080fd5b600080fd5b600080fd5b6000601f19601f8301169050919050565b7f4e487b7100000000000000000000000000000000000000000000000000000000600052604160045260246000fd5b61096282610919565b810181811067ffffffffffffffff821117156109815761098061092a565b5b80604052505050565b60006109946108fb565b90506109a08282610959565b919050565b600067ffffffffffffffff8211156109c0576109bf61092a565b5b6109c982610919565b9050602081019050919050565b82818337600083830152505050565b60006109f86109f3846109a5565b61098a565b905082815260208101848484011115610a1457610a13610914565b5b610a1f8482856109d6565b509392505050565b600082601f830112610a3c57610a3b61090f565b5b8135610a4c8482602086016109e5565b91505092915050565b600080600080600060a08688031215610a7157610a70610905565b5b600086013567ffffffffffffffff811115610a8f57610a8e61090a565b5b610a9b88828901610a27565b955050602086013567ffffffffffffffff811115610abc57610abb61090a565b5b610ac888828901610a27565b945050604086013567ffffffffffffffff811115610ae957610ae861090a565b5b610af588828901610a27565b935050606086013567ffffffffffffffff811115610b1657610b1561090a565b5b610b2288828901610a27565b925050608086013567ffffffffffffffff811115610b4357610b4261090a565b5b610b4f88828901610a27565b9150509295509295909350565b6000819050919050565b610b6f81610b5c565b8114610b7a57600080fd5b50565b600081359050610b8c81610b66565b92915050565b600060208284031215610ba857610ba7610905565b5b6000610bb684828501610b7d565b91505092915050565b600081519050919050565b600082825260208201905092915050565b60005b83811015610bf9578082015181840152602081019050610bde565b60008484015250505050565b6000610c1082610bbf565b610c1a8185610bca565b9350610c2a818560208601610bdb565b610c3381610919565b840191505092915050565b600060a0820190508181036000830152610c588188610c05565b90508181036020830152610c6c8187610c05565b90508181036040830152610c808186610c05565b90508181036060830152610c948185610c05565b90508181036080830152610ca88184610c05565b90509695505050505050565b600073ffffffffffffffffffffffffffffffffffffffff82169050919050565b6000610cdf82610cb4565b9050919050565b610cef81610cd4565b82525050565b6000602082019050610d0a6000830184610ce6565b92915050565b610d1981610b5c565b82525050565b6000602082019050610d346000830184610d10565b92915050565b7f4d757374207061792065786163746c7920302e30312045544820746f2061646460008201527f20612070617469656e74207265636f7264000000000000000000000000000000602082015250565b6000610d96603183610bca565b9150610da182610d3a565b604082019050919050565b60006020820190508181036000830152610dc581610d89565b9050919050565b7f4e487b7100000000000000000000000000000000000000000000000000000000600052602260045260246000fd5b60006002820490506001821680610e1357607f821691505b602082108103610e2657610e25610dcc565b5b50919050565b60008190508160005260206000209050919050565b60006020601f8301049050919050565b600082821b905092915050565b600060088302610e8e7fffffffffffffffffffffffffffffffffffffffffffffffffffffffffffffffff82610e51565b610e988683610e51565b95508019841693508086168417925050509392505050565b6000819050919050565b6000610ed5610ed0610ecb84610b5c565b610eb0565b610b5c565b9050919050565b6000819050919050565b610eef83610eba565b610f03610efb82610edc565b848454610e5e565b825550505050565b600090565b610f18610f0b565b610f23818484610ee6565b505050565b5b81811015610f4757610f3c600082610f10565b600181019050610f29565b5050565b601f821115610f8c57610f5d81610e2c565b610f6684610e41565b81016020851015610f75578190505b610f89610f8185610e41565b830182610f28565b50505b505050565b600082821c905092915050565b6000610faf60001984600802610f91565b1980831691505092915050565b6000610fc88383610f9e565b9150826002028217905092915050565b610fe182610bbf565b67ffffffffffffffff811115610ffa57610ff961092a565b5b6110048254610dfb565b61100f828285610f4b565b600060209050601f8311600181146110425760008415611030578287015190505b61103a8582610fbc565b8655506110a2565b601f19841661105086610e2c565b60005b8281101561107857848901518255600182019150602085019450602081019050611053565b868310156110955784890151611091601f891682610f9e565b8355505b6001600288020188555050505b505050505050565b7f496e76616c69642070617469656e7420696e6465780000000000000000000000600082015250565b60006110e0601583610bca565b91506110eb826110aa565b602082019050919050565b6000602082019050818103600083015261110f816110d3565b9050919050565b7f4e487b7100000000000000000000000000000000000000000000000000000000600052603260045260246000fdfea2646970667358221220ee1b1ca77ac996930c885a7c6a28a9a05ac7794a1419f37e69b8086a5629fd0764736f6c63430008110033",
  "immutableReferences": {},
  "source": "// SPDX-License-Identifier: MIT\r\npragma solidity ^0.8.0;\r\n\r\ncontract HospitalRecords {\r\n    struct Patient {\r\n        string name;\r\n        string height;\r\n        string weight;\r\n        string age;\r\n        string bloodGroup;\r\n    }\r\n\r\n    Patient[] public patients;\r\n    address public owner;\r\n\r\n    constructor() {\r\n        owner = msg.sender;\r\n    }\r\n\r\n    function addPatient(\r\n        string memory _name,\r\n        string memory _height,\r\n        string memory _weight,\r\n        string memory _age,\r\n        string memory _bloodGroup\r\n    ) public payable {\r\n        require(msg.value == 0.01 ether, \"Must pay exactly 0.01 ETH to add a patient record\");\r\n        patients.push(Patient(_name, _height, _weight, _age, _bloodGroup));\r\n    }\r\n\r\n    function getPatientsCount() public view returns (uint) {\r\n        return patients.length;\r\n    }\r\n\r\n    function getPatient(uint index) public view returns (string memory, string memory, string memory, string memory, string memory) {\r\n        require(index < patients.length, \"Invalid patient index\");\r\n        Patient memory patient = patients[index];\r\n        return (patient.name, patient.height, patient.weight, patient.age, patient.bloodGroup);\r\n    }\r\n}\r\n",
  "sourcePath": "C:\\Users\\vedmo\\OneDrive\\Desktop\\Eesha bt projects\\hospital-records-blockchain\\contracts\\HospitalRecords.sol",
  "compiler": {
    "name": "solc",
    "version": "0.8.17+commit.8df45f5f.Emscripten.clang"
  },
  "schemaVersion": "3.4.16",
  "updatedAt": "2024-10-16T17:26:45.121Z",
  "networkType": "ethereum",
  "devdoc": {
    "kind": "dev",
    "methods": {},
    "version": 1
  },
  "userdoc": {
    "kind": "user",
    "methods": {},
    "version": 1
  }
}